:020000040800F2
:1000000068090020890100084F1A00082D15000812
:100010004D1A0008F3020008B91A00080000000099
:10002000000000000000000000000000531A00085B
:100030002B03000800000000511A0008551A0008A0
:10004000A3010008A3010008A3010008A301000800
:10005000A3010008A3010008A3010008A3010008F0
:10006000A3010008A3010008A3010008A3010008E0
:10007000A3010008A3010008A3010008A3010008D0
:10008000A3010008F5020008A3010008A30100086D
:10009000A3010008A3010008A3010008A3010008B0
:1000A000A3010008A3010008A3010008A3010008A0
:1000B000A3010008A3010008A3010008A301000890
:1000C000A3010008A3010008A3010008A301000880
:1000D000A3010008A3010008A3010008A301000870
:1000E000A3010008A3010008A301000800F002F822
:1000F00000F03AF80AA090E8000C82448344AAF188
:100100000107DA4501D100F02FF8AFF2090EBAE885
:100110000F0013F0010F18BFFB1A43F0010318473B
:10012000FC1C00001C1D0000103A24BF78C878C1D8
:10013000FAD8520724BF30C830C144BF04680C60ED
:10014000704700000023002400250026103A28BF35
:1001500078C1FBD8520728BF30C148BF0B60704739
:100160001FB51FBD10B510BD00F08AF81146FFF78E
:10017000F7FF01F051FD00F0A8F803B4FFF7F2FF1C
:1001800003BC00F0AFF80000094880470948004769
:10019000FEE7FEE7FEE7FEE7FEE7FEE7FEE7FEE737
:1001A000FEE7FEE704480549054A064B7047000094
:1001B000B71A0008ED000008680300206809002055
:1001C000680500206805002010B5203AC0F00B80BB
:1001D000B1E81850203AA0E81850B1E81850A0E84B
:1001E0001850BFF4F5AF5FEA027C24BFB1E81850A5
:1001F000A0E8185044BF18C918C0BDE810405FEA15
:10020000827C24BF51F8043B40F8043B08BF704790
:10021000D20728BF31F8023B48BF11F8012B28BF95
:1002200020F8023B48BF00F8012B70474FF0000256
:1002300000B5134694469646203922BFA0E80C50DC
:10024000A0E80C50B1F12001BFF4F7AF090728BFB7
:10025000A0E80C5048BF0CC05DF804EB890028BF33
:1002600040F8042B08BF704748BF20F8022B11F05C
:10027000804F18BF00F8012B7047704770477047D8
:10028000754600F02BF8AE4605006946534620F04F
:100290000700854618B020B5FFF784FFBDE8204071
:1002A0004FF000064FF000074FF000084FF0000B32
:1002B00021F00701AC46ACE8C009ACE8C009ACE8E5
:1002C000C009ACE8C0098D46704710B50446AFF3CD
:1002D00000802046BDE81040FFF74FBF0048704740
:1002E0000403002001491820ABBEFEE726000200EF
:1002F0007047FEE7014800F067B80000C002002028
:1003000030B590F840500124AC40C56B6C60046877
:1003100063604368102B036803D099600068C26073
:1003200030BD9A600068C16030BD704772B6FEE7AC
:1003300010B590F821100024022903D00421816314
:1003400001243DE001680A6822F00E020A6001689B
:100350000A6822F001020A601A4A0168914201D13A
:10036000012121E0174A1432914201D110211BE0F2
:10037000144A2832914201D1891515E0114A3C32C4
:10038000914201D189140FE00E4A5032914202D1BC
:100390004FF4803108E00B4A6432914202D14FF4AD
:1003A000801101E04FF08071064A083A5160012146
:1003B00080F82110002180F82010416B01B188479E
:1003C000204610BD080002402DE9F05FC16B0C68AB
:1003D00001680B68D0F840C0042202FA0CF2494DC3
:1003E000DFF824A1494E4A4FDFF828B1DFF828E1B1
:1003F00022422CD05A072AD50A68920603D40A68EA
:1004000022F004020A600168A94201D1042219E025
:10041000514501D1402215E0B14202D14FF4806232
:1004200010E0B94202D14FF480420BE0594502D1AD
:100430004FF4802206E0714502D14FF4800201E0C2
:100440004FF080622F4908394A60C16A3BE04FF0A3
:10045000020808FA0CF818EA040F4FF000094FF0F0
:10046000010235D05FEA837832D50B689B0605D44C
:100470000B6823F00A030B6080F821200168A94271
:1004800001D1022219E0514501D1202215E0B142EB
:1004900002D14FF4007210E0B94202D14FF4005281
:1004A0000BE0594502D14FF4003206E0714502D10C
:1004B0004FF4001201E04FF00072124908394A600F
:1004C00080F82090816A00291AD0BDE8F05F0847C3
:1004D000082505FA0CF5254212D01B0710D50B682C
:1004E00023F00E030B6090F84010C36B02FA01F189
:1004F0005960826380F8212080F82090016BE2E748
:10050000BDE8F09F080002401C000240300002409D
:1005100044000240580002406C00024030B528B34D
:1005200008C8134914221944B1FBF2F18900C163D0
:1005300010498163022141771A6843F6F0718A43BA
:10054000D0E900142143D0E902452C43214304693A
:1005500021434469214384692143114319600021E7
:100560004163012242770177084630BD012030BD4A
:10057000F8FFFDBF0000024070B5044690F820006F
:10058000002501280CD0012084F8200094F8216077
:100590000020012E06D084F820000225284670BDD8
:1005A000022070BD022684F82160A06320680668DE
:1005B00026F0010606602046FFF7A2FEE06A00284A
:1005C0002068016802D041F00E0106E021F004012C
:1005D00001602068016841F00A010160206801683B
:1005E00041F001010160D9E770B5044600F00CF953
:1005F0000546601C02D004480078044400F004F969
:10060000401BA042FAD370BD080000202DE9F84F2E
:10061000DFF8B891002409F1040A0AF1040B23461B
:100620000F270BF1040EC9E00125A5402A40AA427C
:100630007DD1674ED1F804C0ACEB0608B44532D08A
:1006400014DCBCF1030F3AD009DCBCF1000F2AD056
:10065000BCF1010F1CD0BCF1020F31D11DE0BCF187
:10066000110F17D0BCF1120F2AD119E0B8F5881F6D
:1006700019D006DCB8F5803F15D0B8F5801F1FD122
:1006800011E0B8F5001F0ED0B8F5041F18D10AE02C
:10069000CB6815E0CB681B1D12E0CB6808330FE078
:1006A000CB680C330CE08B682BB1012B4FF00803A7
:1006B00003D0456104E0042302E0056100E000236B
:1006C000FF2A01D8064601E000F104064FEA84053E
:1006D00001D9A5F12005D6F8008007FA05FC28EA23
:1006E0000C0803FA05F548EA0508C6F800804D68CD
:1006F000ED0062D5374DAE6946F00106AE61AD69D9
:1007000024F0030605F001050095334D06EB050CBA
:10071000DCF80850A607360F07FA06F825EA0805A0
:10072000DFF8B880404503D14FF0000817E044E0FF
:10073000DFF8AC80404502D14FF001080FE0DFF850
:10074000A480404502D14FF0020808E0DFF898800D
:10075000404502D14FF0030801E04FF0040808FAC9
:1007600006F848EA0508CCF808804D68D9F800601A
:10077000ED034D4601D5164300E096432E604D68CB
:10078000DAF80060AD03554601D5164300E0964304
:100790002E604D68DBF80060ED025D4601D5164322
:1007A00000E096432E604D68DEF80060AD027546AD
:1007B00001D5164300E096432E60641C0D682A465E
:1007C000E5407FF431AFBDE8F88F00000004014040
:1007D000000011100010024000000140000801401C
:1007E000000C01400010014000140140C26821EAE1
:1007F00002030A4043EA0241016170470AB1016104
:1008000070470904FBE7000001488068704700005A
:10081000080000207047000070B5040025D094F84F
:100820003D00002520B984F83C50204600F0FEFA37
:10083000242084F83D002068016821F00101016056
:100840002068016841F4004101602068016821F4DA
:100850000041016000F080FC4D4A6168914201D87E
:100860004C4900E04C49884201D2012070BD4B49FF
:100870002368B0FBF1F15E6826F03F060E435E6030
:100880006368934206D94FF4967359434FF47A73D1
:10089000B1FBF3F12368491C1E6A26F03F06314381
:1008A00019626168914210D84900401EB0FBF1F214
:1008B000521CC2F30B02042A01D2042022E0B0FB36
:1008C000F1F0401CC0F30B001CE0A268F2B301EB96
:1008D000C10303EB0116431EB3FBF6F35B1C43F4A9
:1008E00080431B0549D092B301EBC10202EB011119
:1008F000401EB0FBF1F0401CC0F30B0040F4804000
:1009000040F400402168CA694CF6FF739A431043D3
:10091000C861D4E9071001432068026822F0C002D0
:1009200011430160D4E9030101432068826848F261
:10093000FF339A4311438160D4E9050108432168DC
:10094000CA6822F0FF021043C86001E00EE016E022
:100950002068016841F0010101602564202084F8CD
:100960003D00256384F83E50002070BD01EB410638
:10097000431EB3FBF6F35B1CB3E70120C2E701EBB8
:100980004101401EB0FBF1F0401CC0F30B00B7E783
:10099000A086010080841E0000093D0040420F0037
:1009A0002DE9FF4F81B089460446FFF72DFF05462C
:1009B00094F83D004FF0010820287DD11923012231
:1009C00050492046009500F05BFF002874D194F850
:1009D0003C00012870D0012084F83C0020680168A8
:1009E000C90703D1016841F0010101602068016875
:1009F00021F400610160242084F83D000026266473
:100A00004148E0624FF0011B20272068016841F453
:100A1000807101600095002259462046049B00F039
:100A20002FFF50B120680068C00502D54FF4007058
:100A30002064032005B0BDE8F08F216809F0FE00B6
:100A40000861FFF7E1FE2168054648694969C0F37E
:100A50004000C1F380214FF0A00A0FE0FFF7D4FE61
:100A6000411B0498814200D808B984F83DA0216850
:100A700048694969C0F34000C1F3802194F83D20E2
:100A8000A02A02D008B90029E8D084F83D70206877
:100A90004169C943890716D4016841F400710160B6
:100AA0002068416980691923012216492046009572
:100AB00000F0E6FEB8B900E021E084F83D7084F86B
:100AC0003C600020B6E7016841F4007101602168D4
:100AD0006FF480604861192301220A49204600957D
:100AE00000F0CEFE08B10120A4E7039808F1010848
:100AF00080458AD384F83D7084F83C60F3E7022097
:100B000098E70000020010000000FFFF704700009F
:100B10002DE9F84F1F4690468A460446DDF8289096
:100B2000FFF772FE054694F83D0020287FD1192377
:100B3000012240492046009500F0A2FE002876D10F
:100B400094F83C00012872D0012084F83C00206811
:100B50000168C90703D1016841F001010160206803
:100B6000016821F400610160212084F83D0010201B
:100B700084F83E0000262664C4F824806785608DD2
:100B800020852D48E0622B464A465146204600F01B
:100B900085FD90B9206841698069009036E02A4659
:100BA0004946204600F0EBFE50B1206C042804D1E9
:100BB0002068016841F4007101600120BDE8F88FF0
:100BC000606A216800780861606A401C6062618D1B
:100BD000491E6185218D491E89B22185226853698C
:100BE000DB435B070BD451B100781061606A401C95
:100BF0006062608D401E6085208D401E20852A46E3
:100C00004946204600F016FE0028CED1208D00284F
:100C1000C5D154F83D0B016841F4007101602020FA
:100C200004F81E09E67766770020C7E7FFE7022091
:100C3000C4E70000020010000000FFFF00B50A49F1
:100C40000068ADF5017D0968884209D1684600F069
:100C500059FF05484FF400726946A830FFF7B4FA0F
:100C60000DF5017D00BD0000180000202DE9FF4FAB
:100C700083B09A46DDE9108993460446FFF7C4FD28
:100C800000250646009594F83D0020286FD1634862
:100C900046F2A81120270068B0FBF1F101EBC1007A
:100CA00000EB011000900098401E009010D02068CA
:100CB0008069C0438007F6D594F83C00012856D0DF
:100CC000012084F83C0020680168C9070AD00DE0C3
:100CD00044F8305F6773A573206940F020002061FD
:100CE000257386E0016841F0010101602068016818
:100CF00021F400610160222084F83D00402084F846
:100D00003E002564C4F82480A4F82A90608D2085D4
:100D10004348E062208D4FF02308002860D0A06B8C
:100D2000E0B140498162A16B3F480863A06BC56296
:100D3000A06B45632168238D1031626AA06BFFF7B9
:100D40001BFCA8B184F83D7084F83E5054F8400F65
:100D500040F0100044F8040925704AE084F83D7022
:100D600084F83E5054F8400F40F08000F2E752E023
:100D7000CDE9008653465A462046049900F0DCFC33
:100D800088B1A06BFFF7D4FAA06B85622068016878
:100D900021F480610160258565852068016821F066
:100DA0000101016025E0208D0128206813D04168F1
:100DB00041F480514160206841698169009184F863
:100DC0003C50416841F4807141602068416841F4C1
:100DD000006141601DE0016821F480610160EAE783
:100DE000CDE9008653465A462046049900F0A4FCFB
:100DF00018B1012007B0BDE8F08F20684169816912
:100E00000091016841F40071016084F83D7084F83C
:100E10003C500020EEE70220ECE700001400002028
:100E20000000FFFF651500082F150008F0B585B01C
:100E3000002500950195029503950646284F026806
:100E4000284C12200321284BBA422CD1A26942F02F
:100E50000802A261A269039102F008020492C02272
:100E6000CDE9002069461846FFF7D0FBE06940F461
:100E70000010E061E0691E4C00F4001004901B4873
:100E8000C4E900058020C4E9025025616561A561BF
:100E90002046E561FFF742FB08B1FFF747FAB4636C
:100EA000666205B0F0BD134DAA42FAD1A26942F0C4
:100EB0000802A261A269039102F0080204924FF4B1
:100EC0004062CDE9002069461846FFF79FFBE069C4
:100ED00040F48000E061E06900F480000490E0E705
:100EE0000054004000100240000C0140800002400D
:100EF000C0020020005800407047704702488168D7
:100F0000027811448160704708000020074810B53E
:100F1000016841F010010160032000F075F80F2016
:100F200000F006F800F024F8002010BD0020024078
:100F300070B50D4D04464FF47A712878B1FBF0F08E
:100F40000A490968B1FBF0F000F0DCFA48B9102C4E
:100F500007D200222146501E00F036F800206C60B7
:100F600070BD012070BD00000800002014000020AA
:100F70000C4808B5816941F001018161816901F086
:100F800001010091C16941F08051C161C06900F067
:100F9000805000900448416821F0E06141F0007108
:100FA000416008BD0010024000000140002809DB3C
:100FB00000F01F02012191404009800000F1E02073
:100FC000C0F8001170470000F0B40E4B1B680C46CF
:100FD000C3F30223C3F10705042D00D90425191D0D
:100FE000072901D2002300E0DB1E012606FA05F1E5
:100FF000491E214099409E40761E16403143F0BC68
:1010000000F05BBD0CED00E0064900F00702086847
:101010004FF6FF03184040EA0220034A10430860DD
:10102000704700000CED00E00000FA052DE9F047E4
:101030000F46050061D0434E306800F00700B8420B
:1010400009D2306820F0070038433060306800F083
:101050000700B84251D128683B4C810712D54007A0
:1010600003D5606840F4E06060602878000703D52D
:10107000606840F4605060606068A96820F0F0002B
:10108000084360602878C00728D06868012810D01D
:101090002168022810D0890700292EDA616821F022
:1010A000030101436160FFF7AFFB804641F28839DD
:1010B0000DE021688903EFE78901EDE7FFF7A4FB65
:1010C000A0EB0801494502D90320BDE8F08760681C
:1010D000696800F00C00B0EB810FEFD1306800F0D0
:1010E0000700B8420BD9306820F007003843306061
:1010F000306800F00700B84201D00120E5E7287809
:10110000400705D56068E96820F4E0600843606046
:101110002878000706D56068296920F4605040EA05
:10112000C100606000F028F86168084AC1F303114B
:10113000515CC8400649086006480068FFF7F8FEA1
:101140000020C2E70020024000100240021E0008FA
:10115000140000200C00002004480549006849687C
:10116000044AC1F30221515CC840704714000020BA
:1011700000100240121E000812A185B00FC98DE8B0
:101180000F0014A0144A006804905168134801F03D
:101190000C03042B10D0082B0ED1C1F38343C903D9
:1011A0001DF803000AD5516804AAC1F34041515CFF
:1011B0000A4A5043B0FBF1F005B070470849484374
:1011C000FAE7000002030405060708090A0B0C0DE4
:1011D0000E0F1010010200000010024000127A00F1
:1011E00000093D002DE9F84F040070D02078C04D73
:1011F000C00749D06868C0F38100012807D068683B
:10120000C0F38100022809D16868C00306D52868A8
:10121000800339D560680028E7D035E06068B0F514
:10122000803F0BD010B1B0F5A02F11D0286820F46A
:1012300080302860286820F4802002E0286840F48C
:1012400080302860606890B1FFF7DEFA06460AE059
:10125000286840F480202860F0E700BFFFF7D4FA48
:10126000801B642873D828688003F7D50CE0FFF74B
:10127000CBFA064605E000BFFFF7C6FA801B6428DC
:10128000F0D828688003F7D420789A4E80074FF072
:1012900001094FF0000839D5686810F00C0F07D02D
:1012A0006868C0F38100022809D16868C00306D4C9
:1012B0002868800714D52069012808D110E020692A
:1012C000B0B1C6F80090FFF79FFA074605E00AE1C3
:1012D000FFF79AFAC01B0228C4D828688007F7D500
:1012E0002868616920F0F80040EAC10028600DE03C
:1012F000C6F80080FFF788FA074604E0FFF784FA93
:10130000C01B022823D828688007F7D4207800075C
:101310002CD57948A169D9B1C0F80090FFF774FACB
:10132000074604E0FFF770FAC01B02280FD8686A6E
:101330008007F7D571484FF4FA510068B0FBF1F01F
:10134000009000BF0098411E0091FAD20EE080E0AC
:10135000C0F80080FFF758FA074604E0FFF754FA98
:10136000C01B022875D8686A8007F7D42078400728
:1013700060D5E8690027C00008D4E86940F08050D3
:10138000E861E869012700F0805000905C4801683E
:10139000C90513D40168834641F480710160FFF7E9
:1013A00033FA824606E000BFFFF72EFAA0EB0A00F0
:1013B00064284ED8DBF80000C005F5D5E0680128A8
:1013C0000AD008B1052813D0286A20F0010028624D
:1013D000286A20F0040002E0286A40F00100286238
:1013E000E06841F2883B98B1FFF70EFA82460BE0C5
:1013F000286A40F004002862EEE700BFFFF704FA15
:10140000A0EB0A0159455AD8286A8007F6D50CE0A6
:10141000FFF7FAF9824605E0FFF7F6F9A0EB0A01BB
:1014200059454CD8286A8007F6D41FB1E86920F0E6
:101430008050E861E06988B36968C1F381010229DD
:1014400044D00228C6F8608004D0FFF7DDF90446D6
:1014500038E034E0FFF7D8F9074604E0FFF7D4F9A5
:10146000C01B02282BD828688001F7D4206AB0F569
:10147000803F05D16868A16820F4003008436860A7
:10148000D4E908010843696821F4741108436860CD
:10149000C6F86090FFF7B8F9044606E025E000BF03
:1014A000FFF7B2F9001B022809D828688001F7D598
:1014B0001BE000BFFFF7A8F9001B022802D9032098
:1014C000BDE8F88F28688001F4D40EE00128F7D039
:1014D0006868226A00F48031914204D1616A00F4A4
:1014E0007010884201D00120EAE70020E8E7000000
:1014F00000100240000042428004424214000020DA
:101500000070004010B5401EB0F1807F01D3012073
:1015100010BD4FF0E02460610F21601700F0CDFA9C
:101520000020A06107202061002010BDFEE710B55B
:10153000406A0021426B02B19162826B02B19162FA
:101540000268136823F4806313604185202280F8C9
:101550003D2080F83E10016C41F010010164FFF75E
:1015600059F910BD2DE9F041446A94F83D2094F8F2
:101570003E50E16A2068436823F440734360636B24
:10158000002003B19862A36B03B19862212333EA70
:1015900002074FF022060CD036EA020701D1202DB7
:1015A00007D094F83E20002A21D0628D012A20D055
:1015B00024E021684D6825F400654D606085282091
:1015C000292A02D02A2A07D00CE0236384F83D00A0
:1015D0002046FFF792FC05E0266384F83D00204694
:1015E000FFF78AFC2068416841F440714160BDE822
:1015F000F0812268136823F48063136022685368C3
:1016000023F44073536011F5803F06D0082904D0BD
:10161000B1F12A4F01D0202904D121680A6842F48F
:1016200000720A6021684A6822F480524A60216888
:101630004A6822F400624A606085216C19B1204634
:10164000FFF7E8F8D3E7202184F83D1094F83E1026
:1016500084F83E00402905D0122020632046FFF781
:1016600055FAC4E720632046FFF7E8FABFE70168B0
:101670004A69D24352050FD46FF480624A61002157
:1016800040F8301F202242738173026942F0040245
:10169000026101730120704700207047F8B50446CD
:1016A000C06A1E460D461746082807D0012805D0F7
:1016B00010F5803F02D0206B122804D12068016809
:1016C00041F480710160134600224FF00111204661
:1016D000009600F0D5F840B120680068C00502D53A
:1016E0004FF4007020640320F8BD2069B0F5804FEE
:1016F0000ED00620216800EAD51040F0F000086105
:1017000033463A460B49204600F0EEF878B902E03D
:1017100005F0FE0000E0E8B22168086105493346A3
:101720003A46891F204600F0DFF80028DCD001206F
:10173000F8BD0000080001002DE9F84F04460068DC
:1017400089460B9D01689846174641F48061016007
:101750002068016841F48071016000954FF0011B21
:101760000022594620460A9B00F08AF84FF4007A7E
:1017700040B120680068C00501D5C4F840A003202E
:10178000BDE8F88F216809F0FE0008612B46284962
:1017900020460A9A00F0A8F8F0BB206841698069E9
:1017A00000902A4620460A9900F0E9F840B1206CE2
:1017B00004283AD12068016841F40071016034E0E6
:1017C000FEB2B8F1010F09D02168380A08612A4633
:1017D00020460A9900F0D3F80028E8D12068066175
:1017E0002A4620460A9900F0CAF80028DFD120686E
:1017F000016841F48071016000950022594620463D
:101800000A9B00F03DF80028B3D1216809F0FF00E1
:1018100040F00100086100E007E02B460449204643
:101820000A9A00F061F80028AAD00120A8E7000079
:101830000200010070B516460D4604460DE0204634
:10184000FFF715FF08B1012070BD681C05D0FEF739
:10185000DBFF801BA84207D835B120684069C04330
:101860004007ECD4002070BD002044F8300F202148
:101870006173A073216941F0200121612073E2E7C7
:101880002DE9F0471E4690460D460446C1F3074732
:10189000DDF8209008E0701C06D0FEF7B5FFA0EB45
:1018A0000900B0420FD876B12068012F18D08069A6
:1018B00025EA00000004000C14D000214145EAD0C4
:1018C0000020BDE8F087002044F8300F202161732C
:1018D000A073216941F02001216120730120F0E70C
:1018E0004069E5E70121E9E72DE9F0479A4691468D
:1018F0000E46044600254FF02008C1F3074725E0B7
:1019000020684069C043400514D42068016841F450
:101910000071016021686FF480604861256384F87C
:101920003D8084F83E50206C40F00400206484F830
:101930003C501FE0B9F1FF3F08D0FEF765FFA0EB78
:101940000A0149450CD8B9F1000F09D02068012FD0
:1019500013D0806926EA00000004000C0BD0CFE70A
:1019600044F8305F84F80D80A573206940F02000B2
:10197000206125730120BDE8F0874069EAE770B572
:1019800016460D4604460DE02046FFF770FE08B1EE
:10199000012070BD681C05D0FEF736FF801BA842F1
:1019A00007D835B120684069C0430006ECD4002058
:1019B00070BD002044F8300F20216173A0732169AD
:1019C00041F0200121612073E2E7000070B586B08C
:1019D00000241C480094019402940394816941F00E
:1019E00010018161816901F010010491816941F068
:1019F00020018161816901F020010491816941F038
:101A000008018161816901F008010491816941F057
:101A10000401816180690C4E00F004004FF4005510
:101A20000490002229463046FEF7E8FE012000958A
:101A3000CDE901040220039069463046FEF7E6FD39
:101A400006B070BD0010024000100140FEE7FEE746
:101A500070477047FFF752BA30B58FB028216846FB
:101A6000FEF7E4FB14210AA8FEF7E0FB01210804BD
:101A7000CDE900100024029402250491CDE907501D
:101A80004FF4E01009906846FFF7ACFB08B172B65E
:101A9000FEE70F20CDE90A054FF48060CDE90C4048
:101AA00002210AA80E94FFF7C1FA002801D072B6ED
:101AB000FEE70FB030BD7047FEE70907090E0028AA
:101AC00004DB00F1E02080F80014704700F00F0004
:101AD00000F1E02080F8141D70470021022000F082
:101AE00089B800001CB501210548CDE90001801E20
:101AF0000B46417880224068FFF7B8F81CBD000013
:101B0000020000202DE9F047254D8246ADF5027D0B
:101B100028787F2801D9002028702149C4B22048A4
:101B20004F784E68E20700F103004FF0010815D02E
:101B3000CDE900082246641C2C700123394630464A
:101B400012F18002FFF792F84FF4007202A950469A
:101B5000FEF73AFB0DF5027DBDE8F087DFF8409017
:101B6000007809F1020900F0070099F8001041EA35
:101B7000002000F0BBF86FF0010200F0FCF86208F2
:101B800002AB03EBC202C2E9000104F18002CDE91D
:101B90000098641C2C70012339463046D2E70000BF
:101BA000000000203F21012000F024B80146002061
:101BB00000F020B870B504463220FEF715FD0C4D3C
:101BC0006C6000246423012221466868FEF7E8FE69
:101BD00058B1641CE4B2FF2CF4D30020FFF7E6FFF9
:101BE000FFF7E0FFFFF779FF70BD6C70F5E70000CD
:101BF000000000201CB502238DF804000A2000908C
:101C000004488DF8051001AA41784068FEF780FF6E
:101C10001CBD00000000002008B5FFF777F9FFF7B2
:101C20001BFFFFF7D3FE2648416941F001014161E6
:101C30004069002200F00100009011461120FFF7DA
:101C4000C3F91120FFF7B2F91F481E491F4D0024A8
:101C50000160C0E901540E14C0E903464461846187
:101C6000C4610462FEF7D8FD08B172B6FEE71648FB
:101C7000174954300160C0E90154C0E9034644618A
:101C80008461C4610462FEF7C7FD08B172B6FEE765
:101C90000D48FFF78FFF20B14FF480510D48FEF73C
:101CA000A5FDFFF71FFF0C4D4FF400544FF47A765B
:101CB00021462846FEF79AFD3046FEF795FCF7E7E9
:101CC000001002400054004018000020A0860100CF
:101CD00000580040001401400010014002494FF03C
:101CE000000000F016B800BF0000F87FB0FA80F3E3
:101CF00010FA03F10AD0C3F11D0303F580634FEA24
:101D000041504FEA035202EBD12170474FF00000DF
:101D100070470CF00F03092B08BF082000F0598012
:101D20000A2B0BD0082B18BF704708BF1CF0400FC0
:101D30000AD04FF000004FF0000170471CF0400F38
:101D400018BF4FF0004070471CF0100F08D020F073
:101D5000704300F07F4242EAD3014FEA437070477C
:101D600000F0604021F07F4242EA000201F07F4033
:101D700040EA727070474FF0FF0C4CF4E06C1CEAC4
:101D800011531CBF9CEA030C9445C2BFDA4201EB1D
:101D900002517047002B0DD0BCF1000F0FD0002A6C
:101DA00001F00041A4BF41F0E04141F07F614FF0FC
:101DB0000000704701F000414FF00000704750EA0A
:101DC00001334FF09B0C18BF4CF0806C7FF486AF52
:101DD00070471CF4801F11D01CF4E02F03D06FEA71
:101DE000CC31490070474FF04050EFF3008222F0B1
:101DF000704242EA000282F3008870474FF0000010
:101E00007047000000000000000001020304060704
:101E10000809000000000102030400003C1E000845
:101E2000000000201800000028010008541E0008CF
:101E300018000020500900004401000800000000C4
:101E40000000000001000000100000000000000081
:041E50000024F40076
:04000005080000ED02
:00000001FF
